:10200000C02E002049700000C570000093670000DA
:1020100000000000000000000000000000000000C0
:10202000000000000000000000000000C57000007B
:102030000000000000000000C5700000C570000036
:10204000C5700000C5700000C5700000C5700000BC
:10205000312C0000C5700000C570000081890000AF
:10206000C5700000653E00007D3E0000953E00000A
:10207000AD3E0000C53E0000DD3E0000C570000022
:10208000C5700000C57000002568000035680000BC
:10209000456800005568000065680000C5700000D4
:1020A000C5700000C5700000C5700000C57000005C
:1020B0000448054B10B5834203D0044B002B00D0DD
:1020C000984710BD10C3010010C3010000000000BC
:1020D00006480749091A8910CB0F591810B549103D
:1020E00003D0044B002B00D0984710BD10C3010053
:1020F00010C301000000000010B5074C2378002B2E
:1021000009D1FFF7D5FF054B002B02D0044800E0B2
:1021100000BF0123237010BD7401002000000000E7
:1021200010C30100054B10B5002B03D0044905482E
:1021300000E000BFFFF7CCFF10BDC046000000006C
:102140007801002010C3010080B500AFBFF34F8FAE
:10215000024B034ADA60BFF34F8FFEE700ED00E069
:102160000400FA0580B584B000AF0200FB1D1A70B0
:102170000F217B18FA1D1278D2091A700E203B1815
:10218000FA1D127852091A700C4BBB607B181B7831
:10219000002B0DD17B181B789B0010229446BC4469
:1021A0006344083B1A683B181B78DB01D31800E036
:1021B00000231800BD4604B080BDC0460044004165
:1021C00080B500AFFFF7C0FFC046BD4680BD80B5FB
:1021D00082B000AF0200FB1D1A70FB1D1B781800B7
:1021E000FFF7C0FF03001800BD4602B080BD80B5F8
:1021F00084B000AF0200FB1D1A70FB1D1B78180095
:10220000FFF7E5FF0300FB60FB1D1B781F22134057
:1022100001229A401300BB60FB681B69BA68134037
:102220005A1E9341DBB21800BD4604B080BD80B594
:1022300084B000AF0200FB1D1A70BB1D0A1C1A708F
:10224000FB1D1B781800FFF7C2FF0300FB60FB1D9E
:102250001B781F22134001229A401300BB60BB1D54
:102260001B78002B03D0FB68BA689A6102E0FB6818
:10227000BA685A61C046BD4604B080BD80B582B020
:1022800000AF0200FB1D1A70FB1D1B781A001F23F4
:10229000134001229A40034B1A60C046BD4602B06B
:1022A00080BDC04600E100E080B584B000AF78603A
:1022B0007B681B68FB60FB68DB69032213405A1EC6
:1022C0009341DBB21800BD4604B080BD80B582B03A
:1022D00000AF7860C0467B681800FFF7E5FF031E7B
:1022E000F9D1C046BD4602B080BD80B582B000AF16
:1022F00078607B6800221A707B68802292035A60A3
:102300007B68012252421A817B6800225A817B68D5
:1023100000229A817B680022DA817B6800221A748D
:102320007B6800225A747B6800225A617B68002215
:102330001A767B6800225A767B6800229A767B6840
:102340000022DA617B6800221A627B682422002165
:1023500099547B682522002199547B68262200210C
:102360009954C046BD4602B080BD80B584B000AF70
:1023700078607B681B68FB607B681B68180001F055
:1023800053FD03001800FFF779FF7B681800FFF783
:102390009DFFFB681B6802221A43FB681A60C04657
:1023A000BD4604B080BD80B584B000AF78600A003F
:1023B000FB1C1A707B6825229B5CDBB25AB2FB1CAB
:1023C0001B78012199400B005BB213435BB2D9B279
:1023D0007B68252299547B681B68FB60FB1C1B787B
:1023E000022B03D0FB1C1B78032B02D1FB680222BB
:1023F0009A75C046BD4604B080BD000080B500AFF0
:102400001749184B0222180001F063FF154B0221F7
:102410001800FFF7C8FF1449124B0322180001F0FF
:1024200058FF104B03211800FFF7BDFF0F490D4B5C
:102430000122180001F04DFF0A4B01211800FFF79F
:10244000B2FF0B49074B0022180001F042FF054B79
:1024500000211800FFF7A7FFC046BD4680BDC0465B
:10246000F5240000F0090020252500006525000066
:102470008525000080B584B000AF78607B681800C7
:10248000FFF733FF7B6867229A817B6800225A81BD
:102490007B680022DA817B68114ADA617B68114A25
:1024A0001A627B68FA2292001A817A680E490F4BF1
:1024B000180001F00FFE0300FB60FB68002B08D141
:1024C000094A13680A490B401360084B1800FFF7CC
:1024D0004CFFFFF793FF00231800BD4604B080BDFA
:1024E000030010000300110000140042F009002056
:1024F000FFFFCFFF80B582B000AF7860074B0422AA
:102500001A80064B064A5A60044A7B68110018007C
:1025100001F02AFFC046BD4602B080BD98010020F0
:102520000000002080B582B000AF78600B4B042221
:102530001A800A4B0A4A5A60FFF742FE074A7B6834
:102540001100180001F0EAFE031E03D00121012052
:10255000FFF76DFEC046BD4602B080BD9001002071
:10256000A001002080B582B000AF78607B681B6856
:102570005A6803490A405A60C046BD4602B080BD51
:10258000FFFFFBFF80B582B000AF78607B681B68FF
:102590005A6803490A405A60C046BD4602B080BD31
:1025A000FFFFFBFFB0B592B004AF00F0FFF90823C6
:1025B000FB181800FFF75EFF00210120FFF737FE30
:1025C00000237B6300233B6301213020FFF72FFEB4
:1025D00001212F20FFF72BFE01213620FFF727FED8
:1025E00000213720FFF723FE01212C20FFF71FFEDB
:1025F00000212D20FFF71BFE00211620FFF717FEFC
:1026000000211520FFF713FE00210020FFF70FFE29
:10261000904B914A5A608F4B904A9A608D4B0022A2
:102620001A608F4B6A4611001A00103231CA31C14C
:1026300012680A60186859689A68DB680BF0B8FD80
:10264000884B864A1A60874B1B6818000DF0E4FF20
:10265000021C844B5A60844B01221A70824BFA226E
:10266000D2005A80804B814A9A80814B01221A7095
:102670007F4BFA22D2005A807D4B7C4A9A807A4B5B
:1026800000221A737A4B02221A730BF0B7F8764BBA
:1026900000229A6009F0FCFF764977480023012266
:1026A00002F09AFF754B0B221A75FF231B020022C2
:1026B00000210B200AF00FFA714B72481A0000211A
:1026C0000AF0AFF909F0E8FD6F4B1B780122534087
:1026D000DBB2002BF6D06D4B190000200CF0B0FEE1
:1026E000614B1B78002B19D05F4BFA22D2005A8025
:1026F0005D4BDB88062118000CF0C6FE03009BB280
:10270000634A944663449AB2574B9A80564B9B88CF
:10271000604A934202D9544B5E4A9A80524B5B887E
:10272000190002200BF0F4FA4F4B9B88190003208C
:102730000BF0EEFA584B190001200CF081FE4C4BC7
:102740001B78002B19D04A4BFA22D2005A80484BF2
:10275000DB88062118000CF097FE03009BB24C4A60
:10276000944663449AB2424B9A80414B9B88494AB3
:10277000934202D93E4B474A9A803D4B5B881900F1
:1027800000200BF0C5FA3A4B9B88190001200BF092
:10279000BFFA3B4B41481A0002210AF042F9384B7C
:1027A0001A68314B9A60364B3C481A0003210AF0F4
:1027B00038F9334B1A682E4B9A602B4B1B7B022B3C
:1027C00003D1294B9A68274B1A60294B1B7B022B9C
:1027D00003D1274B9A68234B1A60224B1B681800C1
:1027E0000DF01AFF021C1F4B5A601E4B1B682C4A2F
:1027F000934203D91B4B1B7A002B0AD100213E20A8
:10280000FFF715FD174BFF221A72164BFF22DA72E3
:102810001EE03E20FFF7EBFC03001A0001235340AB
:10282000DBB2002B12D001213E20FFF700FD0C4B44
:102830006A4611001A00103231CA31C112680A60AA
:10284000186859689A68DB680BF0B2FC0CF038FA2B
:1028500038E7C046E40800200000E04040420F0096
:10286000C8090020D4080020FC080020DF07000071
:10287000280A0020F8080020E4070020001C00427D
:102880000C0900200B800000F40800200209002041
:10289000DA070000FC0800002E0A00200980000072
:1028A0009F86010080B582B000AF78607B6800220F
:1028B0001A707B6801225A707B6800229A70C046A9
:1028C000BD4602B080BD000080B500AF044B0122C0
:1028D0001A70BFF35F8F62B6C046BD4680BDC0466A
:1028E0000400002080B582B000AFFB1D00221A70EA
:1028F00009E0FB1D1B78094A0021D154FB1D1A7801
:10290000FB1D01321A70FB1D1B78032BF1D9034B01
:1029100001221A71C046BD4602B080BD380A0020AF
:1029200080B582B000AF3B1D1800FFF7BBFF3B1D19
:1029300001221A703B1D1900002000F0C3FA3B1D54
:102940001900012000F0BEFA3B1D19002C2000F0F8
:10295000B9FA3B1D19002D2000F0B4FA3B1D1900F7
:10296000162000F0AFFA3B1D1900152000F0AAFA5E
:102970003B1D1900302000F0A5FA3B1D19002F2047
:1029800000F0A0FA3B1D1900362000F09BFA3B1D19
:102990001900372000F096FA3B1D1900312000F095
:1029A00091FAC046BD4602B080BD000080B500AFC0
:1029B000114B01221A70BFF35F8F62B6FFF792FFCF
:1029C00003F0EAFEFFF7ACFF09F0E0FD09F01AFEA4
:1029D0000CF0FEFC00F076F80BF000F8FFF774FF47
:1029E000C82000F0AFF80BF0D0F909F0D1FF06F0E5
:1029F000B7FAC046BD4680BD0400002080B582B055
:102A000000AF104B1B68002B12D1EFF310837B60DB
:102A10007B68002B09D172B6BFF35F8F0A4B00228F
:102A20001A700A4B01221A7002E0084B00221A7039
:102A3000044B1B685A1C034B1A60C046BD4602B0CB
:102A400080BDC046A401002004000020A801002091
:102A500080B500AF0B4B1B685A1E0A4B1A60094B1E
:102A60001B68002B0AD1084B1B78DBB2002B05D06A
:102A7000064B01221A70BFF35F8F62B6C046BD4697
:102A800080BDC046A4010020A80100200400002051
:102A900080B582B000AF78607B68002B0CD0084B0B
:102AA0007A685A60064B00229A60C046044B1A6846
:102AB00080235B021340F9D0C046BD4602B080BD02
:102AC00010E000E080B500AF002003F05DFC0200E4
:102AD0000E4B1A600D4B1A68FA23990010000CF087
:102AE000D3FC03001A00094B1A60084B1A68FA233A
:102AF000990010000CF0C8FC03001A00044B1A6087
:102B0000044B05221A60C046BD4680BD0800002067
:102B10000C00002010E000E080B582B000AF7860CB
:102B200004E0074B1B681800FFF7B2FF7B685A1ED2
:102B30007A60002BF5D1C046BD4602B080BDC046CC
:102B40000C00002080B582B000AF786004E0074B35
:102B50001B681800FFF79CFF7B685A1E7A60002BE9
:102B6000F5D1C046BD4602B080BDC0460800002079
:102B700080B584B000AF0200FB1D1A700F217B18D6
:102B8000FA1D127852091A707B181B78002B0BD192
:102B9000084BBB607B181B789B0010229446BC44FA
:102BA0006344083B1B6800E000231800BD4604B0E6
:102BB00080BDC0460018004080B584B000AF020060
:102BC000FB1D1A70FB1D1B781800FFF7D1FF0300D7
:102BD000FB60FB1D1B781F22134001229A4013004B
:102BE000BB60FB681B69BA6813405A1E9341DBB295
:102BF0001800BD4604B080BD80B584B000AF0200AF
:102C0000FB1D1A70FB1D1B781800FFF7B1FF0300B6
:102C1000FB60FB1D1B781F22134001229A4013000A
:102C2000BB60FB68BA681A61C046BD4604B080BD8F
:102C300080B500AF154B00221A7020E0134B1B78B3
:102C40001800FFF7B9FF031E13D0104B1B781800B4
:102C5000FFF7D2FF0D4B1B781A000D4B9200D35893
:102C6000002B06D0094B1B781A00094B9200D35851
:102C70009847064B1B780133DAB2044B1A70034BAA
:102C80001B780F2BDAD9C046BD4680BD3D0A002017
:102C9000400A002080B582B000AF0F4B3B6000239C
:102CA0007B6011E07B689B0008229446BC4463442F
:102CB000083B1B685B78DBB25BB2002B01DA0123B7
:102CC00006E07B6801337B607B68002BEAD0002341
:102CD0001800BD4602B080BD0018004080B582B02B
:102CE00000AF78607B6800221A70C046BD4602B013
:102CF00080BD000080B582B000AF02003960FB1DCE
:102D00001A70FB1D1B78012B0AD0022B0FD0002B51
:102D100014D10E4B99690D4B3A680A439A610FE042
:102D20000A4BD969094B3A680A43DA6108E0074B54
:102D3000196A064B3A680A431A6201E0172300E059
:102D400000231800BD4602B080BDC046000400400C
:102D500080B582B000AF0200FB1D1A70FB1D1B780E
:102D60001A001F23134001229A40034B1A60C046E9
:102D7000BD4602B080BDC04600E100E080B584B031
:102D800000AF2C4B7B6040210020FFF7B3FF3B00DE
:102D90001800FFF7A3FF3B0000221A703B00190048
:102DA000052003F053FB052003F070FB0023FB60BC
:102DB00018E0FB689B0010229446BC4463440C3B23
:102DC0001B681B78DAB2FB689B0010218C46BC4460
:102DD00063440C3B1B6801210A43D2B21A70FB68A2
:102DE0000133FB60FB68002BE3D0C046FFF752FFC6
:102DF000031EFBD10B23FB1800221A700BE00B20E3
:102E00003B181A780C4B92000021D1503B181A78CD
:102E10003B1801321A700B23FB181B780F2BEED9CD
:102E20000420FFF795FF00F009F8C046BD4604B046
:102E300080BDC04600180040400A002080B582B026
:102E400000AF154B3B6000237B6018E07B689B0064
:102E500008229446BC446344083B1B681B78DAB2E2
:102E60007B689B0008218C46BC446344083B1B687C
:102E700002210A43D2B21A707B6801337B607B68FF
:102E8000002BE3D0C046FFF705FF031EFBD1C04671
:102E9000BD4602B080BDC0460018004080B582B07B
:102EA00000AF78607B6880221A707B6800225A70BD
:102EB0007B6801229A707B680022DA70C046BD46AA
:102EC00002B080BD90B585B000AF02003960FB1D37
:102ED0001A700C243B191800FFF7E0FF21007B1843
:102EE00080221A703B681A787B185A703B685A78AF
:102EF0007B189A703B689A787B18DA707A18FB1DF9
:102F00001B781100180003F01FFCC046BD4605B039
:102F100090BD000080B582B000AF074B7B607B683E
:102F20001B7DDBB21A00012313405A1E9341DBB212
:102F30001800BD4602B080BD0040004180B582B09F
:102F400000AF02003960FB1D1A70FB1D1B78012BBE
:102F50000AD0022B0FD0002B14D10E4B99690D4BC8
:102F60003A680A439A610FE00A4BD969094B3A68FB
:102F70000A43DA6108E0074B196A064B3A680A43CC
:102F80001A6201E0172300E000231800BD4602B0DA
:102F900080BDC0460004004080B584B000AF7860BA
:102FA000314BFB6004210120FFF7C8FFFB681B8B3E
:102FB0009BB22022FF3213439AB2FB681A83FFF7B9
:102FC000A9FF03001A0001235340DBB2002B01D0FC
:102FD000052345E07B681B781B021A00C0239B0079
:102FE0001A407B685B78DB011900FF230B401A4312
:102FF0007B689B785B0019001E230B401A437B689B
:10300000DB789B0419008023DB020B401A437B68AA
:103010001B791B041900C0239B020B401A43FB6859
:103020005A60FB689B685B035B0FDBB21A000823E6
:1030300093409AB20D4B1A80FB689B689AB20B4B77
:103040005A807B685A78094B1A71FB681B8B9BB2BC
:103050001A0080235B00134001D0102300E00023FE
:103060001800BD4604B080BD00400041AC01002006
:1030700080B586B000AFB9607A600F23FB18021CE0
:103080001A70344B1B881A00324B5B885343BA6862
:103090009A4201D9182358E02F4B7B617B695B680A
:1030A0003B613B698022D2021A437B695A607B698B
:1030B0001B8B9BB22022FF3213439AB27B691A8387
:1030C000FFF728FF03001A0001235340DBB2002B57
:1030D00001D0052339E00F23FB181B78452B1AD8A4
:1030E0009A001E4BD3181B689F467B691B8B9BB2B3
:1030F0001A0080235B00134001D0102325E0BB6839
:103100009B085A007B69DA6108E0BB689B085A009B
:103110007B69DA6102E0172317E0C0460F23FB1832
:103120001B789BB20E4A13439AB27B691A80C04641
:10313000FFF7F0FE03001A0001235340DBB2002B1F
:10314000F6D17B693A695A6000231800BD4606B083
:1031500080BDC046AC01002000400041282701008E
:1031600000A5FFFF80B588B000AFF860B960BB1D57
:103170001A80464B1B881A00444B5B885343FA68FD
:103180009A4201D918237DE0404B1B88013B1A006D
:10319000FB68134001D0182374E03C4B1B88BA1D18
:1031A00012889A4201D917236CE0394B7B61FFF7F3
:1031B000B1FE03001A0001235340DBB2002B01D003
:1031C00005235FE07B69334A1A80C046FFF7A2FE01
:1031D00003001A0001235340DBB2002BF6D17B69B8
:1031E0001B8B9BB22022FF3213439AB27B691A8356
:1031F000FB685B08FB611A23FB1800221A802DE094
:103200001A217B181B88BA68D3181A7818203B1823
:103210001A807B181A88BB1D1B88013B9A420EDA64
:103220007B181B880133BA68D3181B781B021AB2AB
:103230003B1800215B5E13431AB23B181A80FB69EE
:103240005A1CFA615B001A001823FB181B881380B4
:103250001A22BB18BA18128802321A801A23FA18D6
:10326000BB1D12881B889A42CAD3BB1D1B883F2BEB
:1032700007D8FB68002219000420FFF7F9FE0300BD
:1032800000E000231800BD4608B080BDAC0100205E
:103290000040004144A5FFFF80B584B000AF7860D6
:1032A0001B4B1B881A001A4B5B8853437A689A425F
:1032B00001D9182328E0164B1B889B00013B1A00FC
:1032C0007B68134001D018231EE0124BFB60FFF710
:1032D00021FE03001A0001235340DBB2002B01D072
:1032E000052311E0FB681B8B9BB22022FF321343A6
:1032F0009AB2FB681A837B689B085A00FB68DA6104
:10330000FB68054A1A8000231800BD4604B080BD42
:10331000AC0100200040004102A5FFFF80B582B053
:1033200000AF78607B6800221A70C046BD4602B0CC
:1033300080BD000080B582B000AF02003960FB1D87
:103340001A70FB1D1B78012B0AD0022B0FD0002B0B
:1033500014D10E4B99690D4B3A680A439A610FE0FC
:103360000A4BD969094B3A680A43DA6108E0074B0E
:10337000196A064B3A680A431A6201E0172300E013
:1033800000231800BD4602B080BDC04600040040C6
:1033900080B582B000AF78607B6880221A707B684D
:1033A00000225A707B6801229A707B680022DA70D2
:1033B000C046BD4602B080BD80B582B000AF0200FD
:1033C000FB1D1A70FB1D1B78002B02D0012B07D0B0
:1033D0000DE0084B1A6C074B02210A431A6406E001
:1033E000044B1A6C034B04210A431A64C046BD46C1
:1033F00002B080BD0008004080B584B000AF7860A6
:103400007B681B68FB60FB685B7EDBB25BB2002BFA
:1034100001DA012300E000231800BD4604B080BD9E
:1034200080B582B000AF78607B6800221A707B683C
:1034300000225A707B6800225A807B6800221A7131
:103440007B6800221A767B6800221A627B68002261
:10345000DA617B6800229A607B6800221A737B68BD
:10346000C0225201DA817B6800221A747B68002234
:103470005A747B6800229A747B680022DA747B6835
:1034800000221A757B682A22002199547B68002249
:103490005A757B6800229A757B6824220021995412
:1034A0007B680022DA847B6800221A857B68002210
:1034B000DA757B682B22002199547B682C2200212D
:1034C0009954C046BD4602B080BD000090B599B089
:1034D00000AF78600C243A19134B100019005023E8
:1034E0001A000FF043F8114BFB657B68132B17D8BC
:1034F0003B197A689200D358FB6508243B191800E1
:10350000FFF746FF21007B1800229A707B180122EA
:103510001A70FB6DDBB27A181100180003F014F971
:10352000C046BD4619B090BD40280100FFFF000015
:10353000F0B589B000AF786039601F23FB18002216
:103540001A701023BB611723FB1800221A707B68C6
:103550001B683B610C243B191800FFF7DFFE3B683A
:103560001A783B191A703B1919001E2002F06EFFE1
:103570001E2002F08BFF3B682C229B5C002B3BD073
:1035800016203B183A682B21525C1A703B68197B55
:1035900015243B193A1812788A181A703B682C22A5
:1035A000995C0F23FB183A1912788A181A7015E0E3
:1035B00016243B191B780F2213403A68127B9B1884
:1035C0001800FFF783FF15217B181A787B1801324A
:1035D0001A703B191A783B1901321A701523FA1820
:1035E0000F23FB1812781B789A42E1D33B68DB89E2
:1035F0001800FFF76BFF09E03B681B7B1800FFF723
:1036000065FF3B68DB891800FFF760FF3B685B7D67
:103610009B00DAB23B691A703B689B7DDB015AB2B2
:103620003B685B785BB213435BB2DAB23B695A70BA
:103630003B681B79342B46D89A00BE4BD3181B68C5
:103640009F461F23FB183A68527C1A701723FB18F9
:103650003A68127C1A701023BB6136E01F23FB18F6
:1036600001221A701723FB1802221A701023BB6163
:103670002BE01F23FB1802221A701723FB180422C9
:103680001A701023BB6120E01F23FB1801221A705F
:103690001723FB1806221A701023BB6115E01F23A5
:1036A000FB1800221A701723FB1808221A70102327
:1036B000BB610AE03023BB6107E02023BB6104E06B
:1036C0000023BB6101E01723ABE11F23FB181B782C
:1036D0001B01DBB270221340DAB21723FB181B78F0
:1036E0001343DAB23B699A703B68DB7D3F2B01D90B
:1036F000172396E13B68DA7D3B69DA70C0467B6848
:103700001800FFF779FE031EF9D13B685A88BB69A0
:103710009BB213439AB23B6824215B5C9BB2DB00F3
:103720009BB213439AB23B681B7D9BB29B009BB23A
:1037300013439AB23B689B7C9BB2DB189BB213434A
:103740009AB23B68DB7C9BB213439AB23B699A8086
:103750003B681B7E002B00D1A4E0BB69102B00D17D
:103760007AE0BB69102B03D8BB69002B4ED0A2E0D6
:10377000BB69202B24D0BB69302B00D09BE03B6879
:10378000DB7C002B11D03B68DB697F2B0BDC3B68BB
:10379000DB69803307DB3B681B6A7F2B03DC3B68FC
:1037A0001B6A803301DA17233BE13B68DB69FF2B9F
:1037B00004DC3B681B6AFF2B00DC75E0172330E15B
:1037C0003B68DB7C002B15D03B68DB695A4A93428F
:1037D0000EDC3B68DB69594A934209DB3B681B6A94
:1037E000554A934204DC3B681B6A554A934201DB0D
:1037F000172316E13B68DB69524A934204DC3B68BD
:103800001B6A504A934251DD17230AE13B68DB7C77
:10381000002B15D03B68DB694B4A93420EDC3B68BA
:10382000DB694A4A934209DB3B681B6A464A93427A
:1038300004DC3B681B6A454A934201DA1723F0E037
:103840003B68DB69424A934204DC3B681B6A404A9E
:1038500093422DDD1723E4E03B68DB7C002B15D081
:103860003B68DB693B4A93420EDC3B68DB693A4AC2
:10387000934209DB3B681B6A364A934204DC3B688F
:103880001B6A354A934201DA1723CAE03B68DB69B9
:10389000324A934204DC3B681B6A304A934209DD9A
:1038A0001723BEE0C04606E0C04604E0C04602E082
:1038B000C04600E0C046C0467B681800FFF79CFD8C
:1038C000031EF9D13B681A7E3B691A72C0467B68B9
:1038D0001800FFF791FD031EF9D13B68DB699AB22E
:1038E0003B699A83C0467B681800FFF785FD031E7D
:1038F000F9D13B681B6A9AB23B691A8414203B18C1
:103900003A682C21525C1A7001007B181B78002B3E
:1039100004D07B181A787B18013A1A701423FB180C
:103920001B780F2B04D83B682B229B5C0F2B17D9DD
:10393000172376E090280100FF01000000FEFFFF42
:1039400001FEFFFFFF030000FF07000000F8FFFF7C
:10395000FF0F0000FF7F00000080FFFFFFFF00005F
:10396000C0467B681800FFF747FD031EF9D13B688E
:103970009B683A682B21525C120513431422BA1833
:103980001278120413433A68D28913433A68127BBF
:103990001A433B691A613B682A229A5C3B691A7593
:1039A0003B690F229A753B6824229B5C002B1ED03A
:1039B0003B68DB8C1D4A934201D9172331E03B68F9
:1039C000DA8C3B699A843B6828229B5E184A9342B2
:1039D00005DC3B6828229B5E164A934201DA1723D6
:1039E0001FE03B6828229B5E9AB23B69DA84124B47
:1039F0001B68DB089BB21B029AB2E023DB0013407A
:103A00009AB20E4B5C681B686101DD0E0D43E60E39
:103A1000ABB2FF210B409BB213439AB23B691A85AC
:103A200000231800BD4609B0F0BDC046FF0F0000DE
:103A3000FF07000000F8FFFF246080002060800086
:103A400080B584B000AFF860B9607A60FB68BA688E
:103A50001A6080235B0219000220FFF76BFCBB6831
:103A60001B78DBB21A000123134001D005231AE0B2
:103A7000BB681B78DBB21A000223134001D01C2361
:103A800011E07B685A78FB681A71FB681B79002B80
:103A900002D10120FFF790FC7A68FB681100180042
:103AA000FFF746FD03001800BD4604B080BD80B599
:103AB00082B000AF78607B6800221A70C046BD46B5
:103AC00002B080BD80B586B000AFF860B9607A60A2
:103AD0001623FB1800221A80BB685B08FA689A421A
:103AE00001D9402317E0FB685B001900B8680BF0B0
:103AF000CBFC03009AB216217B18013A1A807B187E
:103B00001B88FF2B01D9402305E07B681622BA18D9
:103B100012881A8000231800BD4606B080BD000040
:103B200090B585B000AF0200FB1D1A70BB1D0A1CCA
:103B30001A70194B1B7801225340DBB2002B03D1C2
:103B4000BB1D1B78002B1AD00C243B191800FFF763
:103B5000AEFF21007B18FA1D12781A707B1819002D
:103B6000132002F073FC132002F090FC0A4BFA1DA4
:103B700012785A70084B01221A70002308E0064B95
:103B80005B78FA1D12789A4201D1002300E01D23D0
:103B90001800BD4605B090BDB401002080B582B0CC
:103BA00000AF78600A00FB1C1A707B684D4A934294
:103BB0003FD04C4A934206D84B4A93420FD04B4ACF
:103BC000934221D089E04A4A934200D15BE0494ABE
:103BD000934200D16CE0484A93423FD07DE0FB1C09
:103BE0001B78012B0AD002DC002B05D075E0022BDC
:103BF00006D0032B06D070E0404B6FE0404B6DE0E9
:103C0000404B6BE0404B69E0FB1C1B78012B0AD05A
:103C100002DC002B05D060E0022B06D0032B06D07F
:103C20005BE003235AE0394B58E0394B56E0394BFF
:103C300054E0FB1C1B78012B0AD002DC002B05D0C2
:103C40004BE0022B06D0032B06D046E0324B45E07A
:103C5000324B43E0324B41E0324B3FE0FB1C1B78E0
:103C6000012B0AD002DC002B05D036E0022B06D057
:103C7000032B06D031E02C4B30E02C4B2EE02C4BAC
:103C80002CE02C4B2AE0FB1C1B78012B0AD002DC19
:103C9000002B05D021E0022B06D0032B06D01CE020
:103CA000254B1BE0254B19E0254B17E0254B15E074
:103CB000FB1C1B78012B0AD002DC002B05D00CE08A
:103CC000022B06D0032B06D007E01F4B06E01F4B4C
:103CD00004E01F4B02E01F4B00E000231800BD462C
:103CE00002B080BD0010004200080042000C0042FB
:103CF00000180042001C00420014004203000400AF
:103D00000300050003000600030007000300010094
:103D100003001E0003001F00030008000300090049
:103D200003000A0003000B00030010000300110051
:103D3000030012000300130003000C0003000D0039
:103D400003000E0003000F0003001600030017001D
:103D5000030018000300190080B582B000AF020014
:103D6000FB1D1A70C046BD4602B080BD90B58BB039
:103D700000AF78600C23FB180F4A13CA13C313CA91
:103D800013C300237B620EE00C23FB187A6A9200B7
:103D9000D3581A007B689A4202D17B6ADBB206E0F4
:103DA0007B6A01337B627B6A052BEDD90023180007
:103DB000BD460BB090BDC0466429010080B584B0FB
:103DC00000AF02003960FB1D1A70134B1B780122F3
:103DD0005340DBB2002B15D00023FB600CE00F4BEF
:103DE000FA6892000E49D1500E4BFA6892000021F9
:103DF000D150FB680133FB60FB68052BEFD9064B04
:103E000001221A70FB1D1A78044B92003968D150B8
:103E1000C046BD4604B080BDB6010020B8010020F8
:103E2000593D0000800A0020F0B585B000AF7860F1
:103E300008257B190A4A1168196092889A800F2612
:103E4000BC197B681800FFF791FF03002370BB19B2
:103E50001B787A19D35C5BB21800BD4605B0F0BD83
:103E60007C29010080B500AF034B1B6800209847F8
:103E7000C046BD4680BDC046B801002080B500AF39
:103E8000034B5B6801209847C046BD4680BDC046D5
:103E9000B801002080B500AF034B9B680220984713
:103EA000C046BD4680BDC046B801002080B500AF09
:103EB000034BDB6803209847C046BD4680BDC04623
:103EC000B801002080B500AF034B1B690420984760
:103ED000C046BD4680BDC046B801002080B500AFD9
:103EE000034B5B6905209847C046BD4680BDC04670
:103EF000B801002080B582B000AF78607B680022F6
:103F00001A70C046BD4602B080BD000080B582B0C8
:103F100000AF02003960FB1D1A70FB1D1B78012BDE
:103F20000AD0022B0FD0002B14D10E4B99690D4BE8
:103F30003A680A439A610FE00A4BD969094B3A681B
:103F40000A43DA6108E0074B196A064B3A680A43EC
:103F50001A6201E0172300E000231800BD4602B0FA
:103F600080BDC0460004004080B582B000AF7860DC
:103F70007B6880221A707B6800225A707B6801225D
:103F80009A707B680022DA70C046BD4602B080BDE0
:103F900080B500AF054B9B78DBB21A0002231340BB
:103FA0005A1E9341DBB21800BD4680BD002000417F
:103FB00090B589B000AF786039607B681B68BB61E1
:103FC0007B681B687B613B681A897B68DA803B6889
:103FD0001A7C7B681A7208243B191800FFF7C4FF8B
:103FE0003B68DB693B613B681B6AFB603B69DAB29B
:103FF0003B191A703B1902225A703B691B0CDBB249
:104000003A191100180002F09FFBFB68DAB23B1965
:104010001A7021003B1902225A70FB681B0CDBB29C
:104020007A181100180002F08FFB3B689B7E002B72
:1040300003D1FFF7ADFF031E02D08023FB6101E037
:104040000023FB613B6825229B5C002B05D13B686C
:104050005A6980239B049A4204D1FB69802212058D
:104060001343FB613B685A683B685B6913433A68DA
:104070002421525C920713433A682621525CD205F0
:104080001343FA691343FB61BB691A68FB691A435E
:10409000BB691A603B685B898022520013439BB264
:1040A0001A00BB695A603B689B895A003B68DB89F0
:1040B0005B041A433B681B7CDB0313433A68527C66
:1040C00013431A00BB695A6200231800BD4609B0A9
:1040D00090BD0000B0B58AB000AFF860B9607A60FA
:1040E000FB68BA681A60FB681B687B627B6A1B68A6
:1040F0000222134001D01C2366E07B6A1B68012268
:10410000134001D005235FE0FB681B681800FFF730
:104110002DFE03003B623B6A0233FB613B6A1433B2
:10412000BB610122FB699A40130019000220FFF7CE
:10413000EDFE14243B191800FFF7DCFE7B685A7E65
:1041400021007B181A70BB69DBB27A1811001800C5
:1041500002F07CF9BB69DBB2180002F097F97B68CA
:104160005B7E00211800FFF7DBFCFB681B6817254E
:104170007C191800FFF7FAFD03002370144A7B191D
:104180001B7811001800FFF719FE7B191A78114BE4
:104190009200F968D150FB68242200219954FB68F1
:1041A000252200219954FB680022DA847B681A7E5C
:1041B000FB685A727B6A10221A607A68FB681100E9
:1041C0001800FFF7F5FE03001800BD460AB0B0BDA9
:1041D000B5430000800A002080B500AFFEF70EFC5A
:1041E000C046BD4680BD80B500AFFEF731FCC0467D
:1041F000BD4680BD80B584B000AF78600A00FB1C6E
:104200001A707B681B68FB60FFF7E6FFFB68002203
:104210005A83FB1C1B78002B03D0FB6800225A60DA
:1042200003E0FB688022D2025A60FFF7DCFFC04641
:10423000BD4604B080BD80B584B000AF78607B68B7
:104240001B68FB60FB681B7EDB07DB0FDBB2002B10
:1042500002D0FB6801221A76FB6802221A76C04659
:10426000BD4604B080BD80B584B000AF78607B6887
:104270001B68FB607B68DB6A591C7A68D162FA684C
:104280002821525CD2B21A707B681B8D013B9AB216
:104290007B681A85C046BD4604B080BD80B584B039
:1042A00000AF78607B681B68FB607B68DB6A591C29
:1042B0007A68D1621B78D9B2FB68282299547B684E
:1042C0001B8D013B9AB27B681A85C046BD4604B07F
:1042D00080BD80B584B000AFF860B960FB1D1A7076
:1042E000FB1D1B78FA6802339B00D3180433BA68AD
:1042F0001A60FB6824229B5CDBB25AB2FB1D1B7860
:10430000012199400B005BB213435BB2D9B2FB6849
:1043100024229954C046BD4604B080BD80B584B007
:1043200000AF786039607B681B8D002B01D00523BE
:1043300016E03B685A687B68DA623B681A887B68DB
:104340001A853B681A887B68DA847B6831220521EC
:1043500099547B681B68FB60FB6807229A750023F1
:104360001800BD4604B080BD80B584B000AF786051
:1043700039607B681B8D002B01D0052316E03B685C
:104380005A687B68DA623B681A887B681A853B68E2
:104390001A887B68DA847B683122052199547B680E
:1043A0001B68FB60FB6807229A7500231800BD4656
:1043B00004B080BD80B586B000AF0200FB1D1A704E
:1043C000FB1D1A78C54B9200D3587B617B691B6833
:1043D0003B610F203B187A692521525C1A707B697A
:1043E00024229B5CDAB23B18391809780A401A700B
:1043F0003B691B7EDBB21A000223134000D1B3E0FD
:104400007B69DB8C9AB27B691B8D9A421AD07B69DF
:1044100030229B5CDBB2002B14D17B69312200215E
:1044200099547B690022DA847B6900221A853B1843
:104430001B780222134027D07B691B697A69100020
:10444000984721E07B69DB8C9AB27B691B8D9A428D
:104450001AD07B6930229B5CDBB2012B14D17B69C3
:104460003122002199547B690022DA847B69002281
:104470001A850F23FB181B780122134004D07B6997
:10448000DB687A69100098473B695B8B9BB21A0026
:10449000432313400ED07B693122102199540F23FE
:1044A000FB181B782022134004D07B691B6A7A69B1
:1044B000100098477B695B7A002B05D07B6900214F
:1044C0001800FFF797FE45E03B695B8B9BB21A0033
:1044D000082313401FD07B693022012199540F23F8
:1044E000FB181B780422134004D07B695B697A694E
:1044F000100098477B69DB8C9BB2002B05D17B6950
:1045000000211800FFF776FE24E07B6901211800E6
:10451000FFF770FE1EE07B693022002199540F23C3
:10452000FB181B780822134004D07B699B697A69C9
:10453000100098477B69DB8C9BB2002B05D17B690F
:1045400000211800FFF756FE04E07B6901211800E6
:10455000FFF750FE7B691800FFF76DFE7B690121B4
:104560001800FFF747FED5E03B691B7EDBB21A005F
:104570000123134056D03B6901221A763B6905227C
:104580001A757B6925229B5CDBB21A000423134059
:104590000AD17B6925229B5CDBB21A0008231340F9
:1045A00002D13B6902221A757B6931229B5CDBB226
:1045B0001E2B00D1AEE07B6931229B5CDBB2102B5D
:1045C00000D1A7E07B693122002199547B69002248
:1045D000DA847B6900221A850F23FB181B780222DC
:1045E00013400BD07B6930229B5CDBB2002B05D1E2
:1045F0007B691B697A69100098478BE00F23FB18D1
:104600001B780122134000D184E07B6930229B5C3F
:10461000DBB2012B00D07DE07B69DB687A6910009A
:10462000984777E03B691B7EDBB21A0004231340F6
:1046300000D16FE07B691B8D002B13D07B6930228A
:104640009B5CDBB2012B4BD17B69DB8C9AB27B6923
:104650001B8D9A4244D93B695B8B9BB21A000423A1
:1046600013403DD07B6900221A857B690022DA84E1
:104670007B6930229B5CDBB2002B1BD17B69002164
:104680001800FFF7B7FD3B695B68802292021A436E
:104690003B695A607B6931221E2199540F23FB1814
:1046A0001B781022134034D07B69DB697A691000D3
:1046B00098472EE07B6900211800FFF79BFD3B69BE
:1046C0005B68802292021A433B695A607B693122FF
:1046D000002199543B6904221A751AE0800A0020CF
:1046E0007B69DB8C9BB2002B14D07B691B8D002B6C
:1046F00010D07B6930229B5CDBB2002B04D17B693C
:104700001800FFF7B0FD05E07B691800FFF7C6FD54
:1047100000E0C046C046BD4606B080BD80B582B050
:1047200000AF78607B6880221A707B6800225A7024
:104730007B6801229A707B680022DA70C046BD4611
:1047400002B080BD80B582B000AF78607B68002287
:104750001A70C046BD4602B080BD000080B582B070
:1047600000AF02003960FB1D1A70FB1D1B78012B86
:104770000AD0022B0FD0002B14D10E4B99690D4B90
:104780003A680A439A610FE00A4BD969094B3A68C3
:104790000A43DA6108E0074B196A064B3A680A4394
:1047A0001A6201E0172300E000231800BD4602B0A2
:1047B00080BDC0460004004080B500AF054B9B782B
:1047C000DBB21A00022313405A1E9341DBB21800D9
:1047D000BD4680BD0020004180B584B000AF786048
:1047E0007B681B68FB60FB681B7EDBB21A00022340
:1047F00013405A1E9341DBB21800BD4604B080BD81
:1048000080B584B000AF78607B681B68FB60FB6894
:104810001B7EDBB21A00012313405A1E9341DBB208
:104820001800BD4604B080BD80B584B000AF78608C
:104830007B681B68FB60FB681B7EDBB21A000423ED
:1048400013405A1E9341DBB21800BD4604B080BD30
:1048500080B584B000AF78600A00BB1C1A807B680A
:104860001B68FB607B681800FFF7CAFF03001A0093
:1048700001235340DBB2002B01D0052306E0BB1C13
:104880001B88DB05DA0DFB689A6200231800BD4621
:1048900004B080BD80B584B000AF786039607B68BB
:1048A0001B68BB607B681800FFF7BEFF03001A009F
:1048B00001235340DBB2002B01D010232BE00F214A
:1048C0007B1800221A70BB685B8B9BB21A00042312
:1048D00013400AD07B181E221A70BB685B8B9BB2F8
:1048E000042213439AB2BB685A837B689B79012BDD
:1048F00008D1BB689B6A9BB2DB05DB0D9AB23B68B3
:104900001A8005E0BB689B6ADBB29AB23B681A80EA
:104910000F23FB181B781800BD4604B080BD80B57E
:1049200084B000AF78607B681B68FB60FB68022284
:104930001A76C046BD4604B080BDF0B593B000AF56
:10494000786039607B681B687B637B681B683B63AE
:104950001C243B191800FFF7E1FE3B1900225A7096
:104960003B689A6A0C217B181A603B68DA6A7B18EC
:104970005A603B681A6B7B189A603B685A6B7B18CD
:10498000DA604723FB1800221A7029E047217B18C0
:104990001A780C23FB189200D3583B643B6C002B15
:1049A00008D17B181A783B6B11001800FFF7F6F856
:1049B00003003B643B6C01330CD03B6CDAB21C212E
:1049C0007B181A703B6C1B0CDBB27A1811001800B4
:1049D00001F0BAFE47217B181A787B1801321A7051
:1049E0004723FB181B78032BD0D93B681A787B68C8
:1049F0005A713B681A7C7B689A713B689A7C7B6829
:104A0000DA713B681A7D7B681A720A257B190022CD
:104A10001A800023FB630023BB633B681B78012BD8
:104A200027D17B681B681800FFF7A0F90300FB6221
:104A3000FB6A1433BB62BB6ADBB2180001F0AEFD47
:104A400003007B623B689B692326BC197A19796A4B
:104A50001800FFF737F803002370BB191B78002BF1
:104A600001D017236DE00A23FB181B88DAB27B6B99
:104A70001A733B681B78002B1AD13B689B69FB6358
:104A80003B689B8BBB637B6B5B6A3A68927F1100D0
:104A90003A68D27F12040A431A437B6B5A623B681E
:104AA00020229B5C002B03D0BB6B40221343BB63D3
:104AB0003B685B68FA6B1343FB633B689B68FA6B6C
:104AC0001343FB633B68DB68FA6B1343FB633B6890
:104AD0001B7C1A00BB6B1343BB633B685B7C002BE6
:104AE00003D1FFF769FE031E03D0FB6B8022134343
:104AF000FB633B689B7C002B04D0BB6B8022920243
:104B00001343BB633B68DB7C002B04D0BB6B802270
:104B100092001343BB633B681B7D002B04D0BB6B2F
:104B2000802292011343BB637B6B1A68FB6B1A43B1
:104B30007B6B1A607B6B5A68BB6B1A437B6B5A604A
:104B400000231800BD4613B0F0BD0000B0B58AB018
:104B500000AFF860B9607A60FB68BA681A60FB68F9
:104B60001B683B623B6A1B680222134001D01C2376
:104B7000A1E03B6A1B680122134001D005239AE0A3
:104B8000FB681B681800FFF7F1F80300FB61FB6985
:104B90000233BB61FB6914337B610122BB699A401C
:104BA000130019000220FFF7D9FD10243B1918004B
:104BB000FFF7C8FD7B6824229A5C21007B181A70DD
:104BC0007B69DBB27A181100180001F03FFC7B69A9
:104BD000DBB2180001F05AFC7B6824229B5C0021A8
:104BE0001800FEF79DFF7B681B78012B05D13B6AFF
:104BF0001B680C221A433B6A1A607B681B78002BE7
:104C000005D13B6A1B6808221A433B6A1A602723B6
:104C1000FB1800221A700EE027217B181B78FA6817
:104C200002339B00D318043300221A607B181A78D1
:104C30007B1801321A702723FB181B78062BEBD93F
:104C4000FB680022DA62FB6800229A62FB6800229D
:104C50009A86FB6800221A86FB6836220021995446
:104C6000FB68372200219954FB68382200219954AF
:104C7000FB6803225A72FB6800221A71FB681B68EA
:104C800013257C191800FFF771F8030023700C4AF4
:104C90007B191B7811001800FFF790F87B191A7820
:104CA000084B9200F968D1507A68FB68110018002F
:104CB000FFF743FE03001800BD460AB0B0BDC04672
:104CC0008D570000800A0020B0B588B000AFF860B2
:104CD000B9601900BB1D1A803B1D0A1C1A80FB68B5
:104CE00038229B5CDBB2052B01D10523B1E0BB1D53
:104CF0001B88002B01D11723ABE0FB68DB79012275
:104D00005340DBB2002B01D01C23A2E0FB685B798F
:104D1000002B09D1FB681800FFF75EFD031E03D0CE
:104D2000FB681800FFF7FBFD1E23FB1800221A800A
:104D300086E0FB685B79012B12D1C046FB68180046
:104D4000FFF75EFD03001A0001235340DBB2002B86
:104D5000F4D13B1D1A88FB6811001800FFF778FD9D
:104D6000FB685B79002B2AD10023BB6108E0FB685C
:104D70001800FFF759FD031E07D1BB690133BB6162
:104D8000BB69364A9342F2D900E0C046FB6818007E
:104D9000FFF722FD031E05D0FB681800FFF7BFFDDB
:104DA000042356E0FB681800FFF73EFD03001A00DD
:104DB00001235340DBB2002B01D0122349E0C0464F
:104DC000FB681800FFF730FD03001A000123534071
:104DD000DBB2002BF4D114217B1800221A80172596
:104DE0007C197A18FB6811001800FFF753FD0300C7
:104DF00023707B191B78002B02D07B191B7828E0CD
:104E000014257B1919881E243B191B883A19581C34
:104E100010801A00BB689B18CAB21A70FB689B7995
:104E2000012B0DD17B191B881B0A99B23B191B88DA
:104E30003A19581C10801A00BB689B18CAB21A7025
:104E4000BB1D1B88BA1D591E1180002B00D070E7B6
:104E500000231800BD4608B0B0BDC04610270000B2
:104E600090B58BB000AFF860B960BB1D1A80FB68CD
:104E700038229B5CDBB2052B01D105235EE1BB1D13
:104E80001B88002B01D1172358E1FB685B79002BAD
:104E900009D1FB681800FFF79FFC031E03D0FB68D5
:104EA0001800FFF73CFD2623FB1800221A8024235C
:104EB000FB18BA1D12881A80EDE0FB685B79002BA5
:104EC0002AD100233B6208E0FB681800FFF798FC3A
:104ED000031E07D13B6A01333B623B6A994A934206
:104EE000F2D900E0C046FB681800FFF775FC031E0E
:104EF00005D0FB681800FFF712FD04231EE1FB68D4
:104F00001800FFF77DFC03001A0001235340DBB2B9
:104F1000002B01D0122311E1C046FB681800FFF7F7
:104F20006FFC03001A0001235340DBB2002BF4D1C5
:104F300026203B181B883A18591C11801A00BB68A0
:104F40009B181A781E243B191A80FB689B79012B49
:104F500011D13B181B883A18591C11801A00BB68E4
:104F60009B181B781B021AB23B1900215B5E13438E
:104F70001AB23B191A801E23FB181A88FB6811000D
:104F80001800FFF765FCFB68DB7924217A18791893
:104F900009881180002B00D17DE0FB685B79002B34
:104FA00060D10023BB613EE0FB681800FFF728FCDE
:104FB000031E2FD026203B181B883A18591C11803D
:104FC0001A00BB689B181A781E243B191A80FB68CC
:104FD0009B79012B11D13B181B883A18591C118061
:104FE0001A00BB689B181B781B021AB23B190021E0
:104FF0005B5E13431AB23B191A801E23FB181A88F2
:10500000FB6811001800FFF723FCBB1D1A88BB1DAD
:10501000013A1A80FB681800FFF706FC031E07D14F
:10502000BB690133BB61BB69464A9342BCD900E00E
:10503000C046FB681800FFF7CFFB031E05D0FB68D6
:105040001800FFF76CFC042378E0FB681800FFF7FA
:10505000EBFB03001A0001235340DBB2002B01D00D
:1050600012236BE0C046FB681800FFF7DDFB03006E
:105070001A0001235340DBB2002BF4D11223FA189B
:10508000FB6811001800FFF705FC24217B181A8823
:105090007B18013A1A80BB1D1B88BA1D591E11804E
:1050A000002B00D009E7FB685B79012B0BD1C046D0
:1050B000FB681800FFF790FB03001A000123534020
:1050C000DBB2002BF4D1FB685B79002B35D1FB6898
:1050D000DB79002B31D02BE000237B6108E0FB68FB
:1050E0001800FFF7A1FB031E07D17B6901337B6129
:1050F0007B69144A9342F2D900E0C046FB6818006D
:10510000FFF792FB03001A0001235340DBB2002B90
:1051100001D0122312E01023FA18FB6811001800C6
:10512000FFF7B8FB24217B181A887B18013A1A80F4
:105130002423FB181B88002BCED100231800BD466A
:105140000BB090BD10270000B0B58CB000AFF86078
:10515000B9607A601A00BB1C1A80FB6838229B5C1D
:10516000DBB2052B01D10523B9E1BB1C1B88002B49
:1051700001D11723B3E1FB68DB7901225340DBB295
:10518000002B01D01C23AAE1FB685B79002B09D11D
:10519000FB681800FFF720FB031E03D0FB68180014
:1051A000FFF7BDFB2E23FB1800221A802C23FB18CF
:1051B00000221A802A23FB18BA1C12881A8011E1D7
:1051C000FB685B79002B2AD100237B6208E0FB6837
:1051D0001800FFF715FB031E07D17B6A01337B62C2
:1051E0007B6AC14A9342F2D900E0C046FB681800CE
:1051F000FFF7F2FA031E05D0FB681800FFF78FFBDC
:1052000004236CE1FB681800FFF7FAFA03001A00A8
:1052100001235340DBB2002B01D012235FE1C046D3
:10522000FB681800FFF7ECFA03001A000123534053
:10523000DBB2002BF4D12E203B181B883A18591CE6
:1052400011801A00BB689B181A7822243B191A8017
:10525000FB689B79012B11D13B181B883A18591C0C
:1052600011801A00BB689B181B781B021AB23B19ED
:1052700000215B5E13431AB23B191A802223FB18EC
:105280001A88FB6811001800FFF7E2FAFB685B79E7
:10529000002B60D10023FB613EE0FB681800FFF7A4
:1052A000AFFA031E2FD02E203B181B883A18591C2A
:1052B00011801A00BB689B181A7822243B191A80A7
:1052C000FB689B79012B11D13B181B883A18591C9C
:1052D00011801A00BB689B181B781B021AB23B197D
:1052E00000215B5E13431AB23B191A802223FB187C
:1052F0001A88FB6811001800FFF7AAFABB1C1A886D
:10530000BB1C013A1A80FB681800FFF78DFA031ED8
:1053100007D1FB690133FB61FB69734A9342BCD936
:1053200000E0C046FB681800FFF756FA031E05D0E0
:10533000FB681800FFF7F3FA0423D0E0FB681800BD
:10534000FFF772FA03001A0001235340DBB2002B6F
:1053500001D01223C3E0C046FB681800FFF764FACF
:1053600003001A0001235340DBB2002BF4D11421B7
:105370007B1800221A802A203B181A883B18013A11
:105380001A8017257C197A18FB6811001800FFF79E
:1053900081FA030023707B191B78002B02D07B1944
:1053A0001B789CE014257B1919882C243B191B8839
:1053B0003A19581C10801A007B689B18CAB21A70E0
:1053C000FB689B79012B0DD17B191B881B0A99B2B5
:1053D0003B191B883A19581C10801A007B689B18CF
:1053E000CAB21A70BB1C1B88BA1C591E1180002B34
:1053F00000D0E5E6FB685B79012B0BD1C046FB686A
:105400001800FFF7E9F903001A0001235340DBB24B
:10541000002BF4D1FB685B79002B5FD159E00023AE
:10542000BB6108E0FB681800FFF7FEF9031E07D117
:10543000BB690133BB61BB692B4A9342F2D900E0DF
:10544000C046FB681800FFF7EFF903001A000123BC
:105450005340DBB2002B01D0122340E012217B1815
:1054600000221A802A203B181A883B18013A1A8019
:1054700016257C197A18FB6811001800FFF70AFA44
:10548000030023707B191B78002B02D07B191B783B
:1054900025E012257B1919882C243B191B883A1901
:1054A000581C10801A007B689B18CAB21A70FB68DF
:1054B0009B79012B0DD17B191B881B0A99B23B19D3
:1054C0001B883A19581C10801A007B689B18CAB2B6
:1054D0001A702A23FB181B88002BA0D10023180068
:1054E000BD460CB0B0BDC0461027000080B586B0E8
:1054F00000AFF860B960BB1D1A8017203B1800226E
:105500001A70FB68BA1D12881A86FB68BA1D1288C9
:105510005A86FB68BA689A62FB683822052199545A
:10552000FB6800225A72FB681B683B613B1804222F
:105530001A70FB685B79012B0AD1FB685B7ADBB2DE
:10554000002B05D13B183A18127801210A431A7032
:10555000FB685B79002B12D13B6902221A76172077
:105560003B183A18127802210A431A703B69082244
:105570001A763B183A18127808210A431A703B69C8
:105580001722BA1812789A75C046BD4606B080BD7B
:1055900080B584B000AFF860B960FB1D1A70FB1DC8
:1055A0001B78FA6802339B00D3180433BA681A6078
:1055B000FB6836229B5C5AB2FB1D1B780121994087
:1055C0000B005BB213435BB2D9B2FB68362299542D
:1055D000C046BD4604B080BD80B584B000AFF86061
:1055E000B9601900BB1D1A803B1D0A1C1A80BB1D27
:1055F0001B88002B01D117231CE0FB68DB790122FB
:105600005340DBB2002B01D01C2313E0FB6838228F
:105610009B5CDBB2052B01D105230BE0074B3A1D48
:1056200012881A80BB1D1A88B968FB681800FFF73A
:105630005DFF00231800BD4604B080BD980A00201D
:1056400080B584B000AF78607B681B68BB607B6806
:10565000DB6A1B78DAB20E217B181A807B68DB6A62
:105660005A1C7B68DA627B689B79012B11D17B68BD
:10567000DB6A1B78DBB21B021AB27B1800201B5EB0
:1056800013431AB27B181A807B68DB6A5A1C7B684A
:10569000DA620E23FB181B88DB05DA0DBB689A6201
:1056A0007B689B8E9BB2013B9AB27B689A86C04610
:1056B000BD4604B080BD000080B584B000AF786006
:1056C0007B681B68FB60084B1B881A00FB689A62AA
:1056D0007B685B8E9BB2013B9AB27B685A86C04660
:1056E000BD4604B080BDC046980A002080B584B095
:1056F00000AF78607B681B68FB600A217B18002282
:105700001A80FB689A6A7B181A807B685B8E9BB252
:10571000013B9AB27B685A86C046BD4604B080BD44
:1057200080B584B000AF78607B681B68FB60FB6865
:105730009B6A9AB20A217B18D205D20D1A807B6827
:105740009B6A7A181288D2B21A707B689B6A5A1CBC
:105750007B689A627B689B79012B0CD17B181B8834
:105760001B0A9AB27B689B6AD2B21A707B689B6AEA
:105770005A1C7B689A627B681B8E9BB2013B9AB273
:105780007B681A86C046BD4604B080BD80B586B031
:1057900000AF0200FB1D1A70FB1D1A78B84B920077
:1057A000D3587B617B691B683B617B6937229A5CBC
:1057B0007B693621595C0F23FB180A401A703B693C
:1057C0001B7EDAB20C217B181A803B699B7DDBB211
:1057D0009AB27B180800791809880A401A803B1889
:1057E0001B880122134041D07B695B79012B10D1CA
:1057F0007B695B7ADBB2002B0BD17B691800FFF76A
:105800005BFF7B695B8E9BB2002B02D13B6901225F
:105810001A757B695B79012B04D17B695B7ADBB2FA
:10582000002B08D17B695B79002B1FD17B695B7AE8
:10583000DBB2002B1AD07B691800FFF701FF7B69F0
:105840009B8E9BB2002B11D13B6901221A757B699B
:105850005B7ADBB2012B09D17B69DB7901225340F2
:10586000DBB2002B02D03B6902229A750C23FB1895
:105870001B880422134000D17EE03B695B8B9BB206
:105880001A000423134022D07B695B7ADBB2012B20
:1058900014D07B6938221E2199547B6903225A72E5
:1058A0003B6905221A750F23FB181B780822134049
:1058B00004D07B699B697A69100098473B699A6AB2
:1058C0000A23FB181A803B6904225A8354E07B693F
:1058D0005B7ADBB2012B1ED17B691800FFF706FF54
:1058E0007B695B8E9BB2002B46D13B6904221A7503
:1058F0007B693822002199547B6903225A720F2355
:10590000FB181B780122134036D07B69DB687A696B
:105910001000984730E07B691800FFF701FF7B69B2
:105920001B8E9BB2002B27D17B6938220021995412
:105930003B6904221A757B695B7ADBB2022B0BD1BF
:105940000F23FB181B780422134015D07B695B6979
:105950007A69100098470FE07B695B7ADBB2002B15
:105960000AD10F23FB181B780222134004D07B6955
:105970001B697A69100098470C23FB181B880222C8
:10598000134046D07B695B79002B1DD13B69072210
:105990001A753B6902221A767B6903225A727B6967
:1059A00000229A867B6900221A867B6938220021B0
:1059B00099540F23FB181B781022134004D07B69E5
:1059C000DB697A69100098477B695B79012B20D1EC
:1059D0007B695B7ADBB2012B1BD17B69DB7901220E
:1059E0005340DBB2002B14D03B6902221A757B694D
:1059F00003225A727B693822002199540F23FB1825
:105A00001B780122134004D07B69DB687A6910009F
:105A100098470C23FB181B880822134014D07B697D
:105A20005B79002B10D13B6908221A753B6908226B
:105A30001A760F23FB181B782022134004D07B69B1
:105A40001B6A7A69100098470C23FB181B88802278
:105A5000134010D03B6980221A753B6980221A7668
:105A60000F23FB181B784022134004D07B695B6A2C
:105A70007A6910009847C046BD4606B080BDC04652
:105A8000800A002080B582B000AF78607B68012278
:105A90005A607B6800225A707B6806221A707B6805
:105AA00000221A727B6800225A72C046BD4602B0BC
:105AB00080BD80B582B000AF78607B6803221A7029
:105AC0007B6800225A707B6801229A70C046BD46EE
:105AD00002B080BD80B582B000AF78607B680022E4
:105AE0001A707B6800225A807B6800229A807B684B
:105AF00000229A717B680022DA717B6801225A7059
:105B00007B6807221A727B683F225A817B680122D8
:105B10001A737B680122DA817B6806221A82C046EA
:105B2000BD4602B080BD000080B582B000AF02006B
:105B3000FB1D1A70034AFB1D1B781372C046BD463D
:105B400002B080BD0004004080B582B000AF02000A
:105B5000FB1D1A70BB1D0A1C1A70FB1D1B78012B44
:105B600008D0022B0BD0002B0ED10B4ABB1D1B788B
:105B700053720BE0084ABB1D1B78937206E0064A7D
:105B8000BB1D1B78D37201E0172300E0002318002F
:105B9000BD4602B080BDC0460004004080B582B062
:105BA00000AF0200FB1D1A70084AFB1D1B780F2175
:105BB0000B40D9B253680F20014049001E20834397
:105BC0000B435360C046BD4602B080BD004000415B
:105BD00080B500AFC046044BDB6810221340FAD0FA
:105BE000C046BD4680BDC0460008004080B500AF3D
:105BF0000C4B1B689BB20C4A80218B439BB2938455
:105C0000FFF7E6FF084A074B9B68D362064A054B3D
:105C10005B689362034B1A68034B92B29A84C04646
:105C2000BD4680BDD00100200008004080B582B094
:105C300000AF0200FB1D1A70FB1D1B78082B40D81B
:105C40009A00224BD3181B689F46214B1B6939E0F1
:105C5000204B1B6A9B059B0FDBB21A001E4BD340E7
:105C600030E080231B022DE080231B022AE0184B2A
:105C70005B6927E0164B1B680222134001D1002309
:105C800020E0FFF7A5FF124B1B680422134009D048
:105C9000002000F083FC02000D4B9B681B041B0CD2
:105CA00053430FE00D4B0DE00A4A5023D35CDBB2A7
:105CB0001A000423134001D1002303E0044BDB68E6
:105CC00000E000231800BD4602B080BD8429010019
:105CD000D00100200008004000127A00006CDC02B5
:105CE00090B585B000AF78601A4B1B6AFB607B688B
:105CF0001B781A1C03231340DAB20D23FB1803216F
:105D00000A4010001A7803218A43111C021C0A431E
:105D10001A707B689A780C243B19D0011A787F217D
:105D20000A40111C021C0A431A707B685A783B19FE
:105D300001210A4090011A7840218A43111C021C5B
:105D40000A431A70034BFA681A62C046BD4605B092
:105D500090BDC0460008004080B582B000AF7860BA
:105D60007B681B7A9B021B041A0C7B685B899B0572
:105D70009B0D1A43234B5A607B689A797B68DB79C9
:105D80001343DBB21A007B685B8813437A689288FE
:105D90001A437B685B78DB011A431A4B1A607B68F5
:105DA0001B78042B16D17B681B7B9B061A007B6833
:105DB000DB891B041900144B0B4013437A68128AC9
:105DC0001A43104B9A600F4B1B687A6812781A437B
:105DD0000C4B1A607B681B78202B0ED17B681B8ACA
:105DE0001A00084B9A60074B1B687A6812781343B5
:105DF0008022D2001A43034B1A60C046BD4602B04F
:105E000080BDC046D00100200000FF0380B582B0F5
:105E100000AF0200FB1D1A70FB1D1B78082B3BD83E
:105E20009A00214BD3181B689F46204B1A6A1F4BC0
:105E300002210A431A62002331E01C4B9A691B4B72
:105E400002210A439A6129E0184B1B8A9BB2174A28
:105E500002210B439BB2138220E0144B9B8A9BB21E
:105E6000124A02210B439BB2938217E0104B1B682E
:105E700002221A430E4B1A60FFF7B8FE0EE00B4ADF
:105E80004423D35CDBB2094A02210B43D9B2442339
:105E9000D15403E0002302E0172300E000231800A0
:105EA000BD4602B080BDC046A829010000080040E0
:105EB000D001002080B584B000AF0200FB1D1A7035
:105EC0000023FB60FB1D1B78082B21D89A00184B80
:105ED000D3181B689F460823FB601BE00423FB606C
:105EE00018E00123FB6015E00223FB6012E01023A1
:105EF000FB600FE00F4A5023D35CDBB21A00032390
:105F00001340033B5A425341DBB20CE001230AE049
:105F1000002308E0074BDB68FA681340FA68D31ADD
:105F20005A425341DBB21800BD4604B080BDC046A2
:105F3000CC2901000008004090B5A5B000AF814B0E
:105F4000C222D2009A600120FFF728FE74243B1978
:105F50001800FFF7BFFD21007B1820221A707B1864
:105F600000225A707B1800225A807B180822DA71AE
:105F70007B1810229A717B18802252009A807B181D
:105F800007221A737B180122DA816F4B1B689B0E64
:105F90008C22B9180B60BB181B683F2B02D11F2342
:105FA000BA181360694B1B689B059B0D88217A18F2
:105FB00013607B181B68664A934202D1654B7A18BE
:105FC00013608C23FB181B68DAB274217B181A72D9
:105FD0008823FB181B689AB27B185A817B18002211
:105FE0005A807B180822DA717B1800229A717B187C
:105FF000802252009A807B18574A1A827B18180018
:10600000FFF7AAFE70243B191800FFF752FD21008C
:106010007B1800221A707B1800229A707B180022CD
:106020005A707B181800FFF75BFE0620FFF7EEFEA4
:1060300000F0E0F858243B191800FFF723FD210079
:106040007B1806221A707B1801225A607B180122E5
:106050001A727B1800225A727B181900012000F076
:10606000DFF8012000F068F940243B191800FFF721
:1060700009FD21007B1806221A707B18FA225A604B
:106080007B1800221A727B1800225A727B181900A2
:10609000032000F0C5F8032000F04EF934243B192A
:1060A0001800FFF7EFFC21007B1803221A707B1801
:1060B00020225A607B1801221A727B1800225A7221
:1060C0007B181900042000F0ABF8042000F034F92C
:1060D0000720FFF79BFEC0460720FFF7EBFE0300FB
:1060E0001A0001235340DBB2002BF5D1154A938CE3
:1060F00080210B4393840020FFF716FD0021002030
:10610000FFF722FD00210120FFF71EFD3B001800D4
:10611000FFF7B8FC3B0007221A703B0001225A60CF
:106120003B0001221A723B0000225A723B00190008
:10613000002000F075F8002000F0FEF8C046BD46D3
:1061400025B090BD000800402460800028608000D9
:10615000FF030000FF01000080BBFFFF80B500AF20
:10616000054B5B78DBB25BB2002B01DA012300E068
:1061700000231800BD4680BD000C004080B582B0F1
:1061800000AF02003960FB1D1A70FB1D1B78012B4C
:106190000AD0022B0FD0002B14D10E4B99690D4B56
:1061A0003A680A439A610FE00A4BD969094B3A6889
:1061B0000A43DA6108E0074B196A064B3A680A435A
:1061C0001A6201E0172300E000231800BD4602B068
:1061D00080BDC0460004004080B500AFFCF70EFC57
:1061E000C046BD4680BD80B500AFFCF731FCC0465F
:1061F000BD4680BD80B500AF08210020FFF7BEFF7F
:10620000064B01221A70C046044B1B78DBB21A0001
:1062100001231340F8D1C046BD4680BD000C0040AC
:1062200080B586B000AF02003960FB1D1A70FB1DFF
:106230001B787B61FB1D1B783B613B681B781B0255
:106240001A007B6913437B613B685B78002B04D0A9
:106250007B698022D20213437B613B685B7A002B0F
:1062600004D07B698022120313437B613B685B6827
:10627000012B2CD93B685A683B685B68013B134093
:106280001AD10023FB600223BB6005E0FB680133E9
:10629000FB60BB685B00BB603B685B68BA689A42A6
:1062A000F4D3FB681B023A6913433B617B6980228C
:1062B000520313437B610AE03B685B681B023A6947
:1062C00013433B617B698022920213437B613B68ED
:1062D0001B7A002B04D07B698022920313437B61DD
:1062E000C046FFF73BFF031EFBD1FFF775FF104AC7
:1062F000FB1D1B781370C046FFF730FF031EFBD158
:106300000C4B3A699A60C046FFF728FF031EFBD189
:10631000084B5A6880235B021A401100054B7A69CA
:106320000A435A60FFF75FFFC046BD4606B080BD16
:10633000080C0040000C004080B582B000AF0200A5
:10634000FB1D1A70C046FFF709FF031EFBD1FFF7C4
:1063500043FF0B4AFB1D1B781370C046FFF7FEFE80
:10636000031EFBD1074B5A68064B802149020A43A2
:106370005A60FFF738FFC046BD4602B080BDC04638
:10638000040C0040000C004080B586B000AF020055
:10639000FB1D1A70C046FFF7E1FE031EFBD1FFF79D
:1063A0001BFF274AFB1D1B781370C046FFF7D6FE64
:1063B000031EFBD1234B5B68DB04DB0EDBB2180052
:1063C000FFF734FC03007B611D4AFB1D1B78137033
:1063D0001C4B5B68DB02DB0FDAB21323FB181A706D
:1063E000194AFB1D1B781370C046FFF7B7FE031E4A
:1063F000FBD1144B9B681B021B0C9BB2FB60FFF78D
:10640000F2FE1323FB181B78002B09D1FB68012B2C
:1064100006D9F968786909F037F803007B610AE06A
:106420001323FB181B78002B05D0FB6801337A6916
:10643000DA4013007B617B691800BD4606B080BD61
:10644000040C0040000C0040080C004080B584B0F3
:1064500000AF02003960FB1D1A70FB1D1B78FB604A
:106460003B681B781B021A00FB681343FB60FB1D93
:106470001B78180000F02AF8034BFA6892B25A8091
:10648000C046BD4604B080BD000C004080B582B05F
:1064900000AF0200FB1D1A70FFF79EFE094AFB1DAC
:1064A0001B781370084B5B889BB207498022D2018E
:1064B00013439BB24B80FFF796FEC046BD4602B029
:1064C00080BDC046020C0040000C004080B584B086
:1064D00000AF0200FB1D1A70FFF77EFE1B4AFB1D7A
:1064E0001B7813701A4B5B881B051B0FDBB2FB601C
:1064F000174A538817490B405380154B5B889BB252
:10650000134A15490B409BB25380C046104B5B8821
:106510009BB21A008023DB011340F7D10C4AFB68C1
:10652000191C0F230B40D9B25388081C0F210140BE
:10653000080208490B40191C031C0B435380FFF74A
:1065400052FEC046BD4604B080BDC046020C0040AD
:10655000000C0040FFF0FFFFFFBFFFFF80B582B0DF
:1065600000AF0200FB1D1A70FFF736FE094AFB1D43
:106570001B781370084B5B889BB207498022D201BD
:1065800013439BB24B80FFF72EFEC046BD4602B0C0
:1065900080BDC046020C0040000C004090B585B0A4
:1065A00000AF0200FB1D1A70FFF716FE0B4AFB1D21
:1065B0001B7813700A4B5B881B051B0FDAB20F2484
:1065C0003B191A70FFF70FFE3B191B781800FFF7F5
:1065D000DBFE03001800BD4605B090BD020C004074
:1065E000000C004080B584B000AF0200FB1D1A70A3
:1065F0000F217B18FA1D1278D2091A700E203B1851
:10660000FA1D127852091A700C4BBB607B181B786C
:10661000002B0DD17B181B789B0010229446BC44A4
:106620006344083B1A683B181B78DB01D31800E071
:1066300000231800BD4604B080BDC04600440041A0
:1066400080B588B000AFF860B9607A600023FB6164
:106650007B68DB7801225340DBB2002B34D07B68AF
:106660001B78802B0BD0FB69802252021343FB6105
:106670007B681B781B061A00FB691343FB617B6870
:106680005B78002B03D07B685B78022B10D1FB6911
:10669000802292021343FB617B689B78002B04D01D
:1066A000FB698022D2021343FB61FB68BA685A601F
:1066B0007B685B78012B03D07B685B78022B03D16E
:1066C000FB69204A1340FB61BB681B041B0CBB61C8
:1066D000BB681B0C7B61BA69FB691343A022D2051E
:1066E0001A43FB689A627A69FB691343D022120647
:1066F0001A43FB689A627B68DB7801225340DBB265
:10670000002B1AD0FA698023DB0213400AD07B6881
:106710009B78012B03D1FB68BA689A6102E0FB68A1
:10672000BA685A617B685B78012B03D07B685B7821
:10673000022B02D1FB68BA689A60C046BD4608B019
:1067400080BDC046FFFFFBFF80B584B000AF0200F4
:106750003960FB1D1A70FB1D1B781800FFF742FF04
:106760000300FB60FB1D1B781F22134001229A408F
:106770001300BB603A68B968FB681800FFF760FF58
:10678000C046BD4604B080BD80B500AFC046BD4622
:1067900080BD80B500AFFEE780B500AFFFF7CCFB52
:1067A000FFF7F2FFFFF7F0FFFCF7E8FAC046BD463F
:1067B00080BD80B584B000AFF860B960FB1D1A7071
:1067C000FB1D1A78FB6802329200B968D150FB1D9C
:1067D0001B78022B07D1FB681B7E10221343DAB211
:1067E000FB681A7619E0FB1D1B78032B07D1FB68A9
:1067F0001B7E20221343DAB2FB681A760DE0FB6899
:106800001B7E5AB2FB1D1B78012199400B005BB225
:1068100013435BB2DAB2FB681A7600231800BD4658
:1068200004B080BD80B500AF002000F023F8C04662
:10683000BD4680BD80B500AF012000F01BF8C0460A
:10684000BD4680BD80B500AF022000F013F8C04601
:10685000BD4680BD80B500AF032000F00BF8C046F8
:10686000BD4680BD80B500AF042000F003F8C046EF
:10687000BD4680BD80B584B000AF0200FB1D1A701C
:10688000FB1D1A78284B9200D358FB60FB681B68ED
:106890009B7BDBB2FA68127E1340DAB2FB68597E4A
:1068A0000B203B180A401A703B181B78012213403A
:1068B00008D0FB689B68FA6810009847FB681B6863
:1068C00001229A730B23FB181B780222134008D075
:1068D000FB68DB68FA6810009847FB681B680222B7
:1068E0009A730B23FB181B781022134008D0FB6807
:1068F0001B69FA6810009847FB681B6810229A739E
:106900000B23FB181B782022134008D0FB685B691F
:10691000FA6810009847FB681B6820229A73C046EB
:10692000BD4604B080BDC0469C0A002080B582B040
:1069300000AF78607B6800221A70C046BD4602B086
:1069400080BD000080B582B000AF02003960FB1D41
:106950001A70FB1D1B78012B0AD0022B0FD0002BC5
:1069600014D10E4B99690D4B3A680A439A610FE0B6
:106970000A4BD969094B3A680A43DA6108E0074BC8
:10698000196A064B3A680A431A6201E0172300E0CD
:1069900000231800BD4602B080BDC0460004004080
:1069A00080B582B000AF78607B6880221A707B6807
:1069B00000225A707B6801229A707B680022DA708C
:1069C000C046BD4602B080BD80B584B000AF7860DF
:1069D0007B681B68FB60FB68DB7BDBB21A008023F3
:1069E00013405A1E9341DBB21800BD4604B080BD6F
:1069F00090B589B000AF78600823FB180E4A13CA1F
:106A000013C303CA03C30023FB610DE00823FB1873
:106A1000FA699200D3587A689A4202D1FB69DBB2D4
:106A200006E0FB690133FB61FB69042BEED900230F
:106A30001800BD4609B090BDF0290100B0B58CB07A
:106A400000AFF860B9607A602E23FB1800221A802C
:106A50002D23FB1800221A702C23FB1800221A7019
:106A60002923FC18BB681800FFF7C2FF030023703E
:106A70002423FB18C94A1168196012791A71182366
:106A8000FB18C74A03CA03C312881A802B23FB18BA
:106A900000221A700CE02B203B181A78FB68023297
:106AA00092000021D1503B181A783B1801321A701D
:106AB0002B23FB181B78032BEDD9FB6800221A76D9
:106AC000FB6800225A7629203B181A78B54B9200B1
:106AD000F968D150FB68BA681A607B689B78082B0C
:106AE00007D13B181B7803330122134001D0172331
:106AF000A1E17B689A78FB681A71BB681B889BB21E
:106B00001A000123134001D0052394E1BB68DB7B0D
:106B1000DBB21A001023134001D01C238BE1BB68A9
:106B20001B889BB21A000223134001D01C2382E170
:106B30007B681B7C002B15D014243B191800FFF731
:106B40002FFF7B689B69DAB221007B181A707B18D3
:106B500001225A707B685B69DBB27A181100180059
:106B6000FFF7F2FD7B681B7F002B15D014243B1927
:106B70001800FFF715FF7B685B6ADAB221007B180B
:106B80001A707B1801225A707B681B6ADBB27A1874
:106B900011001800FFF7D8FD29243B191A78182591
:106BA0007B195200D35A19000220FFF7CBFE7B68F5
:106BB0009B78082B09D13B191B785A1C7B19520072
:106BC000D35A19000220FFF7BDFE10243B1918000C
:106BD000FFF7ACFE7B681A7821007B181A70292415
:106BE0003B191B7824257A19D35C7A1811001800F8
:106BF000FFF72CFC3B191B787A19D35C1800FFF7C0
:106C000045FC7B689A787B689B791343DBB29AB228
:106C10007B681B89134399B27B689A882E203B18A6
:106C20000A431A807B685B78002B06D03B183A1821
:106C30001288802109010A431A80C046FB681800A7
:106C4000FFF7C2FE031EF9D1BB682E22BA181288C4
:106C50001A807B685B7B002B03D02D23FB1804225A
:106C60001A707B689B7B002B06D02D22BB18BA18AC
:106C7000127801210A431A70C046FB681800FFF71A
:106C8000A3FE031EF9D1BB68FF221A712D23FB1846
:106C90001B78002B0BD0C046FB681800FFF794FE52
:106CA000031EF9D1BB682D22BA1812785A712C2311
:106CB000FB187A68927A1A702A23FB1800221A703D
:106CC00019E02A217B181B787A68D318DB7A002B0D
:106CD0000BD07B181B7810229A401300D9B22C22BB
:106CE000BB18BA1812780A431A702A217B181A782E
:106CF0007B1801321A702A23FB181B78012BE0D96C
:106D0000C046FB681800FFF75FFE031EF9D1BB68A1
:106D10002C22BA1812789A71C046FB681800FFF747
:106D200053FE031EF9D1FB681B79042B04D0082BFA
:106D30005DD0002B38D07DE0C046FB681800FFF71F
:106D400043FE031EF9D17B6828229A5CBB681A7443
:106D5000C046FB681800FFF737FE031EF9D17B68B9
:106D600029229A5CBB681A75C046FB681800FFF7B9
:106D70002BFE031EF9D17B682A229A5CBB681A7627
:106D8000C046FB681800FFF71FFE031EF9D17B68A1
:106D90002B229A5CBB685A7600234CE0042A01003F
:106DA0000C2A01009C0A0020C046FB681800FFF76F
:106DB0000BFE031EF9D17B681A8DBB681A82C04690
:106DC000FB681800FFF700FE031EF9D17B685A8D9F
:106DD000BB681A83C046FB681800FFF7F5FD031E69
:106DE000F9D17B689A8DBB685A83002323E0C046A3
:106DF000FB681800FFF7E8FD031EF9D17B689A6A6B
:106E0000BB681A61C046FB681800FFF7DDFD031E72
:106E1000F9D17B68DA6ABB689A61C046FB681800E2
:106E2000FFF7D2FD031EF9D17B681A6BBB68DA61EC
:106E3000002300E017231800BD460CB0B0BDC046CB
:106E400080B582B000AF02003960FB1D1A70FB1DD7
:106E50001B78012B0AD0022B0FD0002B14D10E4B24
:106E600099690D4B3A680A439A610FE00A4BD96958
:106E7000094B3A680A43DA6108E0074B196A064B86
:106E80003A680A431A6201E0172300E00023180061
:106E9000BD4602B080BDC0460004004080B582B04F
:106EA00000AF074B7B607B68DB79DBB25BB2002B0A
:106EB00001DA012300E000231800BD4602B080BDC6
:106EC0000010004080B582B000AF074B7B607B684C
:106ED0001B78DBB21A00802313405A1E9341DBB2A9
:106EE0001800BD4602B080BD0010004080B586B0DD
:106EF00000AF7860534B3B6110210020FFF7A0FFEB
:106F0000FFF7E0FF031E01D0102397E07B68DB78DA
:106F1000002B01D1172391E07B68DA787B681B791D
:106F20009A4205D37B68DA787B685B799A4201D212
:106F3000172383E03B691B78DBB202229343DAB26A
:106F40003B691A70C046FFF7A9FF031EFBD17B689F
:106F50005B7801225340DBB2002B01D000236DE0AF
:106F60007B689A780C217B181A707B181900032013
:106F7000FFF76CFA0320FFF789FA7B681B78002B78
:106F800002D00320FFF7EAFA00237B617B68DB78FD
:106F9000013B1A007B6913437B617B681B79002BE3
:106FA00010D03B691B78DBB204221343DAB23B6991
:106FB0001A707B681B79013B1B011A007B69134324
:106FC0007B6107E03B691B78DBB204229343DAB2B2
:106FD0003B691A70C046FFF761FF031EFBD17B6956
:106FE000DAB23B695A707B685B79002B0AD0C046E5
:106FF000FFF754FF031EFBD17B685B79013BDAB2DC
:107000003B699A707B681B78002B09D03B691B7821
:10701000DBB2802252421343DAB23B691A7007E0B6
:107020003B691B78DBB202221343DAB23B691A7068
:10703000C046FFF733FF031EFBD100231800BD46F7
:1070400006B080BD0010004080B582B000AF164B86
:107050007B60164B3B607A683B689A420CD007E035
:107060007A68131D7B603B68191D396012681A60CD
:107070003A680F4B9A42F3D30E4B3B6004E03B68F7
:107080001A1D3A6000221A603A680B4B9A42F6D3F6
:107090000A4B7B607A680A4B7F218A439A600BF027
:1070A0002DFAFBF77FFAFEE710C301000000002075
:1070B0007401002074010020BC0E0020002000009C
:1070C00000ED00E080B500AFFEE7000080B584B0C1
:1070D00000AF78600A4B1B68002B02D1084B094AAD
:1070E0001A60074B1B68FB60054B1A687B68D21857
:1070F000034B1A60FB681800BD4604B080BDC04653
:10710000E8010020C02E002080B582B000AF78607A
:107110007B6800221A70C046BD4602B080BD0000E8
:1071200080B582B000AF02003960FB1D1A70FB1DF4
:107130001B78012B0AD0022B0FD0002B14D10E4B41
:1071400099690D4B3A680A439A610FE00A4BD96975
:10715000094B3A680A43DA6108E0074B196A064BA3
:107160003A680A431A6201E0172300E0002318007E
:10717000BD4602B080BDC0460004004080B582B06C
:1071800000AF78607B6880221A707B6800225A709A
:107190007B6801229A707B680022DA70C046BD4687
:1071A00002B080BD80B582B000AF0200FB1D1A7036
:1071B000FB1D1B781A001F23134001229A40034B2A
:1071C0001A60C046BD4602B080BDC04600E100E086
:1071D00080B582B000AFBB4B1B681B681B8C9BB299
:1071E000180008F01FFB03007B607B681F2B00D991
:1071F00072E1B44B1B681A687B6808335B01D318D3
:1072000007331B78DBB23B603B680322134000D19D
:1072100088E001227B689A401300DB431A00AA4BE6
:107220001B681A40A84B1A60A64B1B681A687B683B
:1072300008335B01D318073303221A70A14B1A6875
:10724000AE217B68D3185B181B781A00012313400A
:1072500068D07B68DAB29D4B1A709A4B1B681B682A
:107260007A6808325201D35C9B079B0FDBB2012B7B
:107270001ED1974A7B685B01D3185B689B049B0C0B
:107280009BB21A00914B5A80914A7B685B01D318DC
:107290005B681B019B0C9BB21A008C4B9A808C4A3A
:1072A0007B685B01D3185A68920B92035A602CE0FA
:1072B000874A7B685B01D3185B681B019B0C9BB200
:1072C0001A00824B5A80824A7B685B01D3185B6844
:1072D0009B049B0C9BB21A007C4B9A807C4A7B6877
:1072E0005B01D3185A687B490A405A60774B5B8828
:1072F000002B0AD1764A7B685B01D3185B689B043C
:107300009B0C9BB21A00714B5A806E4B1A687B68BB
:1073100002331B01D31804331A686A4B1B686B498C
:10732000180090473B680422134014D001227B6868
:107330009A401300DB431A00634B1B681A40624BF0
:107340001A60604B1B681A687B6808335B01D318AE
:10735000073304221A703B68082213403CD00122F4
:107360007B689A401300DB431A00574B1B681A4096
:10737000554B1A60534B1B681A687B6808335B01D6
:10738000D318073308221A704E4B1A68AE217B6857
:10739000D3185B181B781A00022313401CD07B689B
:1073A000DAB24A4B1A704A4A7B685B01D3180E3333
:1073B0001B889BB2DBB21F221340DAB2434B5A70D8
:1073C000404B1A687B681B01D31828331A683D4B61
:1073D0001B683E49180090473B68102213403AD082
:1073E00001227B689A401300DB431A00364B1B686E
:1073F0001A40354B1A60334B1B681A687B68083398
:107400005B01D318073310221A702E4B1A68AE2175
:107410007B68D3185B181B781A00042313401AD01A
:107420007B68DAB2294B1A70294A7B685B01D31852
:107430005B681B019B0C9BB21A00244B5A80214BAA
:107440001A687B681B01D3182C331A681D4B1B6804
:107450000021180090473B682022134000D110E122
:1074600001227B689A401300DB431A00164B1B680D
:107470001A40154B1A60134B1B681A687B68083357
:107480005B01D318073320221A700E4B1A68AE2105
:107490007B68D3185B181B781A000823134000D1AF
:1074A000EFE07B68DAB2094B1A70064B1A687B680A
:1074B0001B01D31830331A68024B1B6803491800AC
:1074C0009047DEE0EC01002004020020F0010020E3
:1074D000B00A0020FF3F00F06C4B1B681B689B8BC1
:1074E0009BB23B603B680422134013D0674B1B6880
:1074F0001B6804229A83654B1B68A5229B5C1A00BB
:107500000123134006D0614B1B685A685F4B1B6810
:10751000180090473B680822134016D05C4B0022AD
:107520001A605A4B1B681B6808229A83574B1B68CA
:10753000A5229B5C1A000223134006D0534B1B6804
:107540009A68524B1B68180090473B6840221340D2
:1075500013D04E4B1B681B6840229A834B4B1B6811
:10756000A5229B5C1A001023134006D0474B1B68D2
:107570005A69464B1B68180090473B68202213400D
:1075800013D0424B1B681B6820229A833F4B1B6819
:10759000A5229B5C1A000823134006D03B4B1B68B6
:1075A0001A693A4B1B68180090473B681022134039
:1075B00013D0364B1B681B6810229A83334B1B6811
:1075C000A5229B5C1A000423134006D02F4B1B6896
:1075D000DA682E4B1B68180090473B6880221340E6
:1075E00016D02B4B00221A60284B1B681B68802288
:1075F0009A83264B1B68A5229B5C1A00202313400C
:1076000006D0224B1B689A69204B1B6818009047D4
:107610003A6880235B00134017D01D4B00221A608C
:107620001A4B1B681B68802252009A83174B1B68F9
:10763000A5229B5C1A004023134006D0134B1B6805
:10764000DA69124B1B68180090473A6880239B0048
:10765000134016D00E4B00221A600C4B1B681B689F
:10766000802292009A83094B1B68A5229B5C5BB227
:10767000002B06DA054B1B681A6A044B1B681800BE
:107680009047C046BD4602B080BDC046EC01002018
:107690000402002080B584B000AFF8607A600B204F
:1076A0003B180A1C1A703B181A78FB682E3292009D
:1076B0007968D150FA68AA235B00D25A3B1819782E
:1076C000064B4900CB5A134399B2FA68AA235B00D0
:1076D000D15200231800BD4604B080BD182A010015
:1076E00080B582B000AF78600A00FB1C1A70FB1CEA
:1076F00019787B681B68104A49008A5A9A837A680D
:10770000AB235B00D25AFB1C19780B4B4900CB5AB8
:10771000134399B27A68AB235B00D152FB1C1978F2
:107720007B681B68044A49008A5A1A8300231800A0
:10773000BD4602B080BDC046182A010080B582B0A7
:1077400000AF78600A00FB1C1A707A68AB235B00FC
:10775000D35A1BB2FA1C11780C4A49008A5A12B249
:10776000D24312B213401BB299B27A68AB235B00CA
:10777000D152FB1C19787B681B68044A49008A5A5D
:107780009A8200231800BD4602B080BD182A01006D
:10779000B0B584B000AFF860080011007B600B2426
:1077A0003B19021C1A700A257B190A1C1A7020004A
:1077B0003B1819782C003B191B78FA688900CB1804
:1077C00034339B00D31804337A681A603B181A7854
:1077D000F968AC235B008A18D31819783B191B7819
:1077E000084AD35C3A1812780B43D8B2F968AC2334
:1077F0005B008A18D318021C1A7000231800BD46BB
:1078000004B0B0BD282A010080B582B000AF786016
:1078100008001100FB1C021C1A70BB1C0A1C1A7009
:10782000FB1C1978BB1C1B787A688900CB18343391
:107830009B00D318043300221A60FB1C1A78796865
:10784000AC235B008A18D3181B785BB2BA1C127881
:107850000A498A5C52B2D24352B2134059B2FB1C5D
:107860001A78C8B27968AC235B008A18D318021C56
:107870001A7000231800BD4602B080BD282A0100FE
:1078800090B585B000AF786008001100FB1C021CA9
:107890001A70BB1C0A1C1A700F243B19FA1C1278B0
:1078A0000F210A401A703B191A787968B0235B00DF
:1078B0008A18D3181978BB1C1B78544AD35C3A1920
:1078C00012780B43D8B27968B0235B008A18D318BA
:1078D000021C1A70BB1C1B78002B2DD13B191B7886
:1078E000002B0BD17B6819683B191A780A23FF33E8
:1078F00052018A18D31803221A701DE0FB1C1B7852
:107900005BB2002B0CDA7B6819680F23FB181A781E
:107910000A23FF3352018A18D31802221A700BE08F
:107920007B6819680F23FB181A780A23FF3352016A
:107930008A18D31801221A70BB1C1B78012B2ED178
:107940000F22BB181B78002B0BD17B681968BB1862
:107950001A780A23FF3352018A18D3180C221A709E
:107960001DE0FB1C1B785BB2002B0CDA7B681968EE
:107970000F23FB181A780A23FF3352018A18D318F1
:1079800008221A700BE07B6819680F23FB181A781D
:107990000A23FF3352018A18D31804221A70BB1C21
:1079A0001B78022B0BD17B6819680F23FB181A7800
:1079B0000A23FF3352018A18D31810221A70BB1CF5
:1079C0001B78032B1DD1FB1C1B785BB2002B0CDA40
:1079D0007B6819680F23FB181A780A23FF335201BA
:1079E0008A18D31840221A700BE07B6819680F239D
:1079F000FB181A780A23FF3352018A18D318202261
:107A00001A7000231800BD4605B090BD282A010059
:107A100090B585B000AF786008001100FB1C021C17
:107A20001A70BB1C0A1C1A700F203B18FA1C127823
:107A30000F210A401A703B181A787968B0235B004E
:107A40008A18D3181B785BB2BA1C127856498A5C24
:107A500052B2D24352B2134059B204003B181A78C2
:107A6000C8B27968B0235B008A18D318021C1A7058
:107A7000BB1C1B78002B2DD13B191B78002B0BD185
:107A80007B6819683B191A7884235B0052018A18B5
:107A9000D31803221A701DE0FB1C1B785BB2002B6D
:107AA0000CDA7B6819680F23FB181A7884235B00B3
:107AB00052018A18D31802221A700BE07B681968E9
:107AC0000F23FB181A7884235B0052018A18D318FD
:107AD00001221A70BB1C1B78012B2ED10F22BB1860
